{
    "contractName": "TestToken",
    "abi": [
        {
            "inputs": [],
            "stateMutability": "nonpayable",
            "type": "constructor"
        },
        {
            "anonymous": false,
            "inputs": [
                {
                    "indexed": true,
                    "internalType": "address",
                    "name": "src",
                    "type": "address"
                },
                {
                    "indexed": true,
                    "internalType": "address",
                    "name": "guy",
                    "type": "address"
                },
                {
                    "indexed": false,
                    "internalType": "uint256",
                    "name": "wad",
                    "type": "uint256"
                }
            ],
            "name": "Approval",
            "type": "event"
        },
        {
            "anonymous": false,
            "inputs": [
                {
                    "indexed": true,
                    "internalType": "address",
                    "name": "dst",
                    "type": "address"
                },
                {
                    "indexed": false,
                    "internalType": "uint256",
                    "name": "wad",
                    "type": "uint256"
                }
            ],
            "name": "Deposit",
            "type": "event"
        },
        {
            "anonymous": false,
            "inputs": [
                {
                    "indexed": true,
                    "internalType": "address",
                    "name": "src",
                    "type": "address"
                },
                {
                    "indexed": true,
                    "internalType": "address",
                    "name": "dst",
                    "type": "address"
                },
                {
                    "indexed": false,
                    "internalType": "uint256",
                    "name": "wad",
                    "type": "uint256"
                }
            ],
            "name": "Transfer",
            "type": "event"
        },
        {
            "anonymous": false,
            "inputs": [
                {
                    "indexed": true,
                    "internalType": "address",
                    "name": "src",
                    "type": "address"
                },
                {
                    "indexed": false,
                    "internalType": "uint256",
                    "name": "wad",
                    "type": "uint256"
                }
            ],
            "name": "Withdrawal",
            "type": "event"
        },
        {
            "inputs": [
                {
                    "internalType": "address",
                    "name": "",
                    "type": "address"
                },
                {
                    "internalType": "address",
                    "name": "",
                    "type": "address"
                }
            ],
            "name": "allowance",
            "outputs": [
                {
                    "internalType": "uint256",
                    "name": "",
                    "type": "uint256"
                }
            ],
            "stateMutability": "view",
            "type": "function"
        },
        {
            "inputs": [
                {
                    "internalType": "address",
                    "name": "guy",
                    "type": "address"
                },
                {
                    "internalType": "uint256",
                    "name": "wad",
                    "type": "uint256"
                }
            ],
            "name": "approve",
            "outputs": [
                {
                    "internalType": "bool",
                    "name": "",
                    "type": "bool"
                }
            ],
            "stateMutability": "nonpayable",
            "type": "function"
        },
        {
            "inputs": [
                {
                    "internalType": "address",
                    "name": "",
                    "type": "address"
                }
            ],
            "name": "balanceOf",
            "outputs": [
                {
                    "internalType": "uint256",
                    "name": "",
                    "type": "uint256"
                }
            ],
            "stateMutability": "view",
            "type": "function"
        },
        {
            "inputs": [],
            "name": "decimals",
            "outputs": [
                {
                    "internalType": "uint8",
                    "name": "",
                    "type": "uint8"
                }
            ],
            "stateMutability": "view",
            "type": "function"
        },
        {
            "inputs": [],
            "name": "deposit",
            "outputs": [],
            "stateMutability": "payable",
            "type": "function"
        },
        {
            "inputs": [
                {
                    "internalType": "address",
                    "name": "",
                    "type": "address"
                }
            ],
            "name": "discount",
            "outputs": [
                {
                    "internalType": "bool",
                    "name": "valid",
                    "type": "bool"
                },
                {
                    "internalType": "uint8",
                    "name": "customFee",
                    "type": "uint8"
                },
                {
                    "internalType": "address",
                    "name": "businessAddress",
                    "type": "address"
                }
            ],
            "stateMutability": "view",
            "type": "function"
        },
        {
            "inputs": [],
            "name": "feeRecipient",
            "outputs": [
                {
                    "internalType": "address",
                    "name": "",
                    "type": "address"
                }
            ],
            "stateMutability": "view",
            "type": "function"
        },
        {
            "inputs": [
                {
                    "internalType": "uint256",
                    "name": "x",
                    "type": "uint256"
                },
                {
                    "internalType": "uint256",
                    "name": "y",
                    "type": "uint256"
                }
            ],
            "name": "fullMul",
            "outputs": [
                {
                    "internalType": "uint256",
                    "name": "l",
                    "type": "uint256"
                },
                {
                    "internalType": "uint256",
                    "name": "h",
                    "type": "uint256"
                }
            ],
            "stateMutability": "pure",
            "type": "function"
        },
        {
            "inputs": [],
            "name": "maximumFee",
            "outputs": [
                {
                    "internalType": "uint256",
                    "name": "",
                    "type": "uint256"
                }
            ],
            "stateMutability": "view",
            "type": "function"
        },
        {
            "inputs": [
                {
                    "internalType": "uint256",
                    "name": "x",
                    "type": "uint256"
                },
                {
                    "internalType": "uint256",
                    "name": "y",
                    "type": "uint256"
                },
                {
                    "internalType": "uint256",
                    "name": "z",
                    "type": "uint256"
                }
            ],
            "name": "mulDiv",
            "outputs": [
                {
                    "internalType": "uint256",
                    "name": "",
                    "type": "uint256"
                }
            ],
            "stateMutability": "pure",
            "type": "function"
        },
        {
            "inputs": [],
            "name": "name",
            "outputs": [
                {
                    "internalType": "string",
                    "name": "",
                    "type": "string"
                }
            ],
            "stateMutability": "view",
            "type": "function"
        },
        {
            "inputs": [],
            "name": "owner",
            "outputs": [
                {
                    "internalType": "address",
                    "name": "",
                    "type": "address"
                }
            ],
            "stateMutability": "view",
            "type": "function"
        },
        {
            "inputs": [],
            "name": "standardFee",
            "outputs": [
                {
                    "internalType": "uint8",
                    "name": "",
                    "type": "uint8"
                }
            ],
            "stateMutability": "view",
            "type": "function"
        },
        {
            "inputs": [],
            "name": "symbol",
            "outputs": [
                {
                    "internalType": "string",
                    "name": "",
                    "type": "string"
                }
            ],
            "stateMutability": "view",
            "type": "function"
        },
        {
            "inputs": [],
            "name": "totalSupply",
            "outputs": [
                {
                    "internalType": "uint256",
                    "name": "",
                    "type": "uint256"
                }
            ],
            "stateMutability": "view",
            "type": "function"
        },
        {
            "inputs": [
                {
                    "internalType": "address",
                    "name": "dst",
                    "type": "address"
                },
                {
                    "internalType": "uint256",
                    "name": "wad",
                    "type": "uint256"
                }
            ],
            "name": "transfer",
            "outputs": [
                {
                    "internalType": "bool",
                    "name": "",
                    "type": "bool"
                }
            ],
            "stateMutability": "nonpayable",
            "type": "function"
        },
        {
            "inputs": [
                {
                    "internalType": "address",
                    "name": "dst",
                    "type": "address"
                },
                {
                    "internalType": "uint256",
                    "name": "wad",
                    "type": "uint256"
                }
            ],
            "name": "transferBusiness",
            "outputs": [
                {
                    "internalType": "bool",
                    "name": "",
                    "type": "bool"
                }
            ],
            "stateMutability": "nonpayable",
            "type": "function"
        },
        {
            "inputs": [
                {
                    "internalType": "address",
                    "name": "src",
                    "type": "address"
                },
                {
                    "internalType": "address",
                    "name": "dst",
                    "type": "address"
                },
                {
                    "internalType": "uint256",
                    "name": "wad",
                    "type": "uint256"
                }
            ],
            "name": "transferFrom",
            "outputs": [
                {
                    "internalType": "bool",
                    "name": "",
                    "type": "bool"
                }
            ],
            "stateMutability": "nonpayable",
            "type": "function"
        },
        {
            "inputs": [
                {
                    "internalType": "address",
                    "name": "src",
                    "type": "address"
                },
                {
                    "internalType": "address",
                    "name": "dst",
                    "type": "address"
                },
                {
                    "internalType": "uint256",
                    "name": "wad",
                    "type": "uint256"
                }
            ],
            "name": "transferFromBusiness",
            "outputs": [
                {
                    "internalType": "bool",
                    "name": "",
                    "type": "bool"
                }
            ],
            "stateMutability": "nonpayable",
            "type": "function"
        },
        {
            "inputs": [
                {
                    "internalType": "uint256",
                    "name": "wad",
                    "type": "uint256"
                }
            ],
            "name": "withdraw",
            "outputs": [],
            "stateMutability": "nonpayable",
            "type": "function"
        },
        {
            "stateMutability": "payable",
            "type": "receive"
        }
    ],
    "bytecode": "6001805460ff60a01b1916600960a11b1760ff60a81b1916600560a91b17905567a688906bd8b0000060025560c06040526009608081905268555344204d7565766f60b81b60a090815261005691600391906100b5565b50604080518082019091526004808252635553446d60e01b602090920191825261008091816100b5565b5034801561008d57600080fd5b5060008054336001600160a01b03199182168117909255600180549091169091179055610148565b828054600181600116156101000203166002900490600052602060002090601f016020900481019282601f106100f657805160ff1916838001178555610123565b82800160010185558215610123579182015b82811115610123578251825591602001919060010190610108565b5061012f929150610133565b5090565b5b8082111561012f5760008155600101610134565b610d30806101576000396000f3fe6080604052600436106101235760003560e01c806370a08231116100a0578063ce06898011610064578063ce0689801461046b578063d0e30db0146104c9578063dd62ed3e146104d1578063e5af69811461050c578063f8140a7e1461054557610132565b806370a082311461039f5780638da5cb5b146103d257806395d89b41146103e7578063a9059cbb146103fc578063aa9a09121461043557610132565b80632e1a7d4d116100e75780632e1a7d4d146102bb578063313ce567146102e55780633539071414610310578063469048401461032557806367a4a3dd1461035657610132565b806306fdde0314610137578063095ea7b3146101c157806318160ddd1461020e57806323b872dd1461023557806327d58d061461027857610132565b366101325761013061055a565b005b600080fd5b34801561014357600080fd5b5061014c6105ad565b6040805160208082528351818301528351919283929083019185019080838360005b8381101561018657818101518382015260200161016e565b50505050905090810190601f1680156101b35780820380516001836020036101000a031916815260200191505b509250505060405180910390f35b3480156101cd57600080fd5b506101fa600480360360408110156101e457600080fd5b506001600160a01b03813516906020013561063b565b604080519115158252519081900360200190f35b34801561021a57600080fd5b506102236106a1565b60408051918252519081900360200190f35b34801561024157600080fd5b506101fa6004803603606081101561025857600080fd5b506001600160a01b038135811691602081013590911690604001356106a5565b34801561028457600080fd5b506101fa6004803603606081101561029b57600080fd5b506001600160a01b0381358116916020810135909116906040013561080a565b3480156102c757600080fd5b50610130600480360360208110156102de57600080fd5b50356109a2565b3480156102f157600080fd5b506102fa610a40565b6040805160ff9092168252519081900360200190f35b34801561031c57600080fd5b50610223610a50565b34801561033157600080fd5b5061033a610a56565b604080516001600160a01b039092168252519081900360200190f35b34801561036257600080fd5b506103866004803603604081101561037957600080fd5b5080359060200135610a65565b6040805192835260208301919091528051918290030190f35b3480156103ab57600080fd5b50610223600480360360208110156103c257600080fd5b50356001600160a01b0316610a92565b3480156103de57600080fd5b5061033a610aa4565b3480156103f357600080fd5b5061014c610ab3565b34801561040857600080fd5b506101fa6004803603604081101561041f57600080fd5b506001600160a01b038135169060200135610b0e565b34801561044157600080fd5b506102236004803603606081101561045857600080fd5b5080359060208101359060400135610b22565b34801561047757600080fd5b5061049e6004803603602081101561048e57600080fd5b50356001600160a01b0316610bd9565b60408051931515845260ff90921660208401526001600160a01b031682820152519081900360600190f35b61013061055a565b3480156104dd57600080fd5b50610223600480360360408110156104f457600080fd5b506001600160a01b0381358116916020013516610c09565b34801561051857600080fd5b506101fa6004803603604081101561052f57600080fd5b506001600160a01b038135169060200135610c26565b34801561055157600080fd5b506102fa610c33565b336000908152600560205260409020546105749034610c43565b5060408051348152905133917fe1fffcc4923d04b559f4d29a8bfc6cda04eb5b0d3c460751c2402c5c5cc9109c919081900360200190a2565b6003805460408051602060026001851615610100026000190190941693909304601f810184900484028201840190925281815292918301828280156106335780601f1061060857610100808354040283529160200191610633565b820191906000526020600020905b81548152906001019060200180831161061657829003601f168201915b505050505081565b3360008181526006602090815260408083206001600160a01b038716808552908352818420869055815186815291519394909390927f8c5be1e5ebec7d5bd14f71427d1e84f3dd0314c0f7b2291e5b200ac8c7c3b925928290030190a350600192915050565b4790565b6001600160a01b0383166000908152600560205260408120548211156106ca57600080fd5b6001600160a01b038416331480159061070857506001600160a01b038416600090815260066020908152604080832033845290915290205460001914155b1561076d576001600160a01b038416600090815260066020908152604080832033845290915290205482111561073d57600080fd5b6001600160a01b038416600090815260066020908152604080832033845290915290205461076b9083610c9d565b505b6001600160a01b0384166000908152600560205260409020546107909083610c9d565b506001600160a01b0383166000908152600560205260409020546107b49083610c43565b50826001600160a01b0316846001600160a01b03167fddf252ad1be2c89b69c2b068fc378daa952ba7f163c4a11628f55a4df523b3ef846040518082815260200191505060405180910390a35060019392505050565b6001600160a01b03831660009081526005602052604081205482111561082f57600080fd5b6001600160a01b038416331480159061086d57506001600160a01b038416600090815260066020908152604080832033845290915290205460001914155b156108cd576001600160a01b03841660009081526006602090815260408083203384529091529020548211156108a257600080fd5b6001600160a01b03841660009081526006602090815260408083203384529091529020805483900390555b6001600160a01b0383166000908152600760205260408120548190819060ff166109045750600154600160a81b900460ff16610927565b506001600160a01b038516600090815260076020526040902054610100900460ff165b6001600160a01b03871660009081526005602052604090205461094a9086610c9d565b506001600160a01b03861660009081526005602052604090205461096e9083610c43565b506001546001600160a01b03166000908152600560205260409020546109949084610c43565b506001979650505050505050565b336000908152600560205260409020548111156109be57600080fd5b336000908152600560205260409020546109d89082610c9d565b50604051339082156108fc029083906000818181858888f19350505050158015610a06573d6000803e3d6000fd5b5060408051828152905133917f7fcf532c15f0a6db0bd6d0e038bea71d30d808c7d98cb3bf7268a95bf5081b65919081900360200190a250565b600154600160a01b900460ff1681565b60025481565b6001546001600160a01b031681565b6000808060001984860990508385029250828103915082811015610a8a576001820391505b509250929050565b60056020526000908152604090205481565b6000546001600160a01b031681565b6004805460408051602060026001851615610100026000190190941693909304601f810184900484028201840190925281815292918301828280156106335780601f1061060857610100808354040283529160200191610633565b6000610b1b3384846106a5565b9392505050565b6000806000610b318686610a65565b91509150838110610b4157600080fd5b60008480610b4b57fe5b868809905082811115610b5f576001820391505b918290039160008590038516808681610b7457fe5b049550808481610b8057fe5b049350808160000381610b8f57fe5b046001019290920292909201600285810380870282030280870282030280870282030280870282030280870282030280870282030295860290039094029390930295945050505050565b60076020526000908152604090205460ff808216916101008104909116906201000090046001600160a01b031683565b600660209081526000928352604080842090915290825290205481565b6000610b1b33848461080a565b600154600160a81b900460ff1681565b600082820183811015610b1b576040805162461bcd60e51b815260206004820152601b60248201527f536166654d6174683a206164646974696f6e206f766572666c6f770000000000604482015290519081900360640190fd5b600082821115610cf4576040805162461bcd60e51b815260206004820152601e60248201527f536166654d6174683a207375627472616374696f6e206f766572666c6f770000604482015290519081900360640190fd5b5090039056fea2646970667358221220c3e72352f8f3a71fc673b632ec7a7875249eab3ac24c3c956eb7cc48a37a587364736f6c634300060c0033",
    "sourcePath": "/Users/Mac/Projects/Nodejs/Muevo/Smart contracts/business-transfer/contracts/BusinessTransfer/TestToken.sol",
    "compiler": {
        "name": "solc",
        "version": "0.6.12+commit.27d51765"
    },
    "functionHashes": {
        "allowance(address,address)": "dd62ed3e",
        "approve(address,uint256)": "095ea7b3",
        "balanceOf(address)": "70a08231",
        "decimals()": "313ce567",
        "deposit()": "d0e30db0",
        "discount(address)": "ce068980",
        "feeRecipient()": "46904840",
        "fullMul(uint256,uint256)": "67a4a3dd",
        "maximumFee()": "35390714",
        "mulDiv(uint256,uint256,uint256)": "aa9a0912",
        "name()": "06fdde03",
        "owner()": "8da5cb5b",
        "standardFee()": "f8140a7e",
        "symbol()": "95d89b41",
        "totalSupply()": "18160ddd",
        "transfer(address,uint256)": "a9059cbb",
        "transferBusiness(address,uint256)": "e5af6981",
        "transferFrom(address,address,uint256)": "23b872dd",
        "transferFromBusiness(address,address,uint256)": "27d58d06",
        "withdraw(uint256)": "2e1a7d4d"
    },
    "gasEstimates": {
        "creation": {
            "codeDepositCost": "675200",
            "executionCost": "infinite",
            "totalCost": "infinite"
        },
        "external": {
            "allowance(address,address)": "1283",
            "approve(address,uint256)": "22323",
            "balanceOf(address)": "1147",
            "decimals()": "1075",
            "deposit()": "2558",
            "discount(address)": "1279",
            "feeRecipient()": "1126",
            "fullMul(uint256,uint256)": "503",
            "maximumFee()": "1065",
            "mulDiv(uint256,uint256,uint256)": "1015",
            "name()": "infinite",
            "owner()": "1082",
            "standardFee()": "1140",
            "symbol()": "infinite",
            "totalSupply()": "268",
            "transfer(address,uint256)": "infinite",
            "transferBusiness(address,uint256)": "infinite",
            "transferFrom(address,address,uint256)": "infinite",
            "transferFromBusiness(address,address,uint256)": "infinite",
            "withdraw(uint256)": "infinite"
        }
    }
}